{
	"Calculator.sol": {
		"Calculator": {
			"abi": [
				{
					"anonymous": false,
					"inputs": [
						{
							"indexed": false,
							"internalType": "uint256",
							"name": "number1",
							"type": "uint256"
						},
						{
							"indexed": false,
							"internalType": "uint256",
							"name": "number2",
							"type": "uint256"
						},
						{
							"indexed": false,
							"internalType": "uint256",
							"name": "result",
							"type": "uint256"
						}
					],
					"name": "Addition",
					"type": "event"
				},
				{
					"anonymous": false,
					"inputs": [
						{
							"indexed": false,
							"internalType": "uint256",
							"name": "number1",
							"type": "uint256"
						},
						{
							"indexed": false,
							"internalType": "uint256",
							"name": "number2",
							"type": "uint256"
						},
						{
							"indexed": false,
							"internalType": "uint256",
							"name": "result",
							"type": "uint256"
						}
					],
					"name": "Division",
					"type": "event"
				},
				{
					"anonymous": false,
					"inputs": [
						{
							"indexed": false,
							"internalType": "uint256",
							"name": "number1",
							"type": "uint256"
						},
						{
							"indexed": false,
							"internalType": "uint256",
							"name": "number2",
							"type": "uint256"
						},
						{
							"indexed": false,
							"internalType": "uint256",
							"name": "result",
							"type": "uint256"
						}
					],
					"name": "Substraction",
					"type": "event"
				},
				{
					"inputs": [
						{
							"internalType": "uint256",
							"name": "num1_",
							"type": "uint256"
						},
						{
							"internalType": "uint256",
							"name": "num2_",
							"type": "uint256"
						}
					],
					"name": "addition",
					"outputs": [
						{
							"internalType": "uint256",
							"name": "result_",
							"type": "uint256"
						}
					],
					"stateMutability": "nonpayable",
					"type": "function"
				},
				{
					"inputs": [
						{
							"internalType": "uint256",
							"name": "num1_",
							"type": "uint256"
						},
						{
							"internalType": "uint256",
							"name": "num2_",
							"type": "uint256"
						}
					],
					"name": "division",
					"outputs": [
						{
							"internalType": "uint256",
							"name": "result_",
							"type": "uint256"
						}
					],
					"stateMutability": "nonpayable",
					"type": "function"
				},
				{
					"inputs": [
						{
							"internalType": "uint256",
							"name": "num1_",
							"type": "uint256"
						}
					],
					"name": "multiplier",
					"outputs": [],
					"stateMutability": "nonpayable",
					"type": "function"
				},
				{
					"inputs": [
						{
							"internalType": "uint256",
							"name": "num1_",
							"type": "uint256"
						}
					],
					"name": "multiplier2",
					"outputs": [],
					"stateMutability": "nonpayable",
					"type": "function"
				},
				{
					"inputs": [],
					"name": "result",
					"outputs": [
						{
							"internalType": "uint256",
							"name": "",
							"type": "uint256"
						}
					],
					"stateMutability": "view",
					"type": "function"
				},
				{
					"inputs": [
						{
							"internalType": "uint256",
							"name": "num1_",
							"type": "uint256"
						},
						{
							"internalType": "uint256",
							"name": "num2_",
							"type": "uint256"
						}
					],
					"name": "substraction",
					"outputs": [
						{
							"internalType": "uint256",
							"name": "result_",
							"type": "uint256"
						}
					],
					"stateMutability": "nonpayable",
					"type": "function"
				},
				{
					"inputs": [
						{
							"internalType": "int256",
							"name": "num1_",
							"type": "int256"
						},
						{
							"internalType": "int256",
							"name": "num2_",
							"type": "int256"
						}
					],
					"name": "substraction2",
					"outputs": [
						{
							"internalType": "int256",
							"name": "result_",
							"type": "int256"
						}
					],
					"stateMutability": "pure",
					"type": "function"
				}
			],
			"devdoc": {
				"kind": "dev",
				"methods": {},
				"version": 1
			},
			"evm": {
				"assembly": "    /* \"Calculator.sol\":111:2586  contract Calculator {... */\n  mstore(0x40, 0x80)\n    /* \"Calculator.sol\":177:179  10 */\n  0x0a\n    /* \"Calculator.sol\":153:179  uint256 public result = 10 */\n  0x00\n  sstore\n    /* \"Calculator.sol\":111:2586  contract Calculator {... */\n  callvalue\n  dup1\n  iszero\n  tag_1\n  jumpi\n  0x00\n  dup1\n  revert\ntag_1:\n  pop\n  dataSize(sub_0)\n  dup1\n  dataOffset(sub_0)\n  0x00\n  codecopy\n  0x00\n  return\nstop\n\nsub_0: assembly {\n        /* \"Calculator.sol\":111:2586  contract Calculator {... */\n      mstore(0x40, 0x80)\n      callvalue\n      dup1\n      iszero\n      tag_1\n      jumpi\n      0x00\n      dup1\n      revert\n    tag_1:\n      pop\n      jumpi(tag_2, lt(calldatasize, 0x04))\n      shr(0xe0, calldataload(0x00))\n      dup1\n      0x65372147\n      gt\n      tag_10\n      jumpi\n      dup1\n      0x65372147\n      eq\n      tag_6\n      jumpi\n      dup1\n      0xa1623dce\n      eq\n      tag_7\n      jumpi\n      dup1\n      0xcdeb3314\n      eq\n      tag_8\n      jumpi\n      dup1\n      0xe0068052\n      eq\n      tag_9\n      jumpi\n      jump(tag_2)\n    tag_10:\n      dup1\n      0x05e30f51\n      eq\n      tag_3\n      jumpi\n      dup1\n      0x2efad609\n      eq\n      tag_4\n      jumpi\n      dup1\n      0x54f363a3\n      eq\n      tag_5\n      jumpi\n    tag_2:\n      0x00\n      dup1\n      revert\n        /* \"Calculator.sol\":1650:1729  function multiplier(uint num1_) public {... */\n    tag_3:\n      tag_11\n      0x04\n      dup1\n      calldatasize\n      sub\n      dup2\n      add\n      swap1\n      tag_12\n      swap2\n      swap1\n      tag_13\n      jump\t// in\n    tag_12:\n      tag_14\n      jump\t// in\n    tag_11:\n      stop\n        /* \"Calculator.sol\":1475:1622  function substraction2(int256 num1_, int256 num2_) public pure returns(int256 result_) {... */\n    tag_4:\n      tag_15\n      0x04\n      dup1\n      calldatasize\n      sub\n      dup2\n      add\n      swap1\n      tag_16\n      swap2\n      swap1\n      tag_17\n      jump\t// in\n    tag_16:\n      tag_18\n      jump\t// in\n    tag_15:\n      mload(0x40)\n      tag_19\n      swap2\n      swap1\n      tag_20\n      jump\t// in\n    tag_19:\n      mload(0x40)\n      dup1\n      swap2\n      sub\n      swap1\n      return\n        /* \"Calculator.sol\":989:1155  function addition(uint256 num1_, uint256 num2_) public returns(uint256 result_) {... */\n    tag_5:\n      tag_21\n      0x04\n      dup1\n      calldatasize\n      sub\n      dup2\n      add\n      swap1\n      tag_22\n      swap2\n      swap1\n      tag_23\n      jump\t// in\n    tag_22:\n      tag_24\n      jump\t// in\n    tag_21:\n      mload(0x40)\n      tag_25\n      swap2\n      swap1\n      tag_26\n      jump\t// in\n    tag_25:\n      mload(0x40)\n      dup1\n      swap2\n      sub\n      swap1\n      return\n        /* \"Calculator.sol\":153:179  uint256 public result = 10 */\n    tag_6:\n      tag_27\n      tag_28\n      jump\t// in\n    tag_27:\n      mload(0x40)\n      tag_29\n      swap2\n      swap1\n      tag_26\n      jump\t// in\n    tag_29:\n      mload(0x40)\n      dup1\n      swap2\n      sub\n      swap1\n      return\n        /* \"Calculator.sol\":1767:1869  function multiplier2(uint256 num1_) public checknumber(num1_) {... */\n    tag_7:\n      tag_30\n      0x04\n      dup1\n      calldatasize\n      sub\n      dup2\n      add\n      swap1\n      tag_31\n      swap2\n      swap1\n      tag_13\n      jump\t// in\n    tag_31:\n      tag_32\n      jump\t// in\n    tag_30:\n      stop\n        /* \"Calculator.sol\":1218:1419  function substraction(uint256 num1_, uint256 num2_) public returns(uint256 result_) {... */\n    tag_8:\n      tag_33\n      0x04\n      dup1\n      calldatasize\n      sub\n      dup2\n      add\n      swap1\n      tag_34\n      swap2\n      swap1\n      tag_23\n      jump\t// in\n    tag_34:\n      tag_35\n      jump\t// in\n    tag_33:\n      mload(0x40)\n      tag_36\n      swap2\n      swap1\n      tag_26\n      jump\t// in\n    tag_36:\n      mload(0x40)\n      dup1\n      swap2\n      sub\n      swap1\n      return\n        /* \"Calculator.sol\":1891:2100  function division(uint256 num1_, uint256 num2_) public checkreminder(num1_, num2_) returns(uint256 result_) {... */\n    tag_9:\n      tag_37\n      0x04\n      dup1\n      calldatasize\n      sub\n      dup2\n      add\n      swap1\n      tag_38\n      swap2\n      swap1\n      tag_23\n      jump\t// in\n    tag_38:\n      tag_39\n      jump\t// in\n    tag_37:\n      mload(0x40)\n      tag_40\n      swap2\n      swap1\n      tag_26\n      jump\t// in\n    tag_40:\n      mload(0x40)\n      dup1\n      swap2\n      sub\n      swap1\n      return\n        /* \"Calculator.sol\":1650:1729  function multiplier(uint num1_) public {... */\n    tag_14:\n        /* \"Calculator.sol\":1717:1722  num1_ */\n      dup1\n        /* \"Calculator.sol\":1708:1714  result */\n      sload(0x00)\n        /* \"Calculator.sol\":1708:1722  result * num1_ */\n      tag_42\n      swap2\n      swap1\n      tag_43\n      jump\t// in\n    tag_42:\n        /* \"Calculator.sol\":1699:1705  result */\n      0x00\n        /* \"Calculator.sol\":1699:1722  result = result * num1_ */\n      dup2\n      swap1\n      sstore\n      pop\n        /* \"Calculator.sol\":1650:1729  function multiplier(uint num1_) public {... */\n      pop\n      jump\t// out\n        /* \"Calculator.sol\":1475:1622  function substraction2(int256 num1_, int256 num2_) public pure returns(int256 result_) {... */\n    tag_18:\n        /* \"Calculator.sol\":1546:1560  int256 result_ */\n      0x00\n        /* \"Calculator.sol\":1582:1615  substraction_logic2(num1_, num2_) */\n      tag_45\n        /* \"Calculator.sol\":1602:1607  num1_ */\n      dup4\n        /* \"Calculator.sol\":1609:1614  num2_ */\n      dup4\n        /* \"Calculator.sol\":1582:1601  substraction_logic2 */\n      tag_46\n        /* \"Calculator.sol\":1582:1615  substraction_logic2(num1_, num2_) */\n      jump\t// in\n    tag_45:\n        /* \"Calculator.sol\":1572:1615  result_ = substraction_logic2(num1_, num2_) */\n      swap1\n      pop\n        /* \"Calculator.sol\":1475:1622  function substraction2(int256 num1_, int256 num2_) public pure returns(int256 result_) {... */\n      swap3\n      swap2\n      pop\n      pop\n      jump\t// out\n        /* \"Calculator.sol\":989:1155  function addition(uint256 num1_, uint256 num2_) public returns(uint256 result_) {... */\n    tag_24:\n        /* \"Calculator.sol\":1052:1067  uint256 result_ */\n      0x00\n        /* \"Calculator.sol\":1097:1102  num2_ */\n      dup2\n        /* \"Calculator.sol\":1089:1094  num1_ */\n      dup4\n        /* \"Calculator.sol\":1089:1102  num1_ + num2_ */\n      tag_48\n      swap2\n      swap1\n      tag_49\n      jump\t// in\n    tag_48:\n        /* \"Calculator.sol\":1079:1102  result_ = num1_ + num2_ */\n      swap1\n      pop\n        /* \"Calculator.sol\":1118:1148  Addition(num1_, num2_, result) */\n      0x099a8fd2a0841afbe8000d711d763bf2c54b2c63bed7b7f92a244ef4f5154536\n        /* \"Calculator.sol\":1127:1132  num1_ */\n      dup4\n        /* \"Calculator.sol\":1134:1139  num2_ */\n      dup4\n        /* \"Calculator.sol\":1141:1147  result */\n      sload(0x00)\n        /* \"Calculator.sol\":1118:1148  Addition(num1_, num2_, result) */\n      mload(0x40)\n      tag_50\n      swap4\n      swap3\n      swap2\n      swap1\n      tag_51\n      jump\t// in\n    tag_50:\n      mload(0x40)\n      dup1\n      swap2\n      sub\n      swap1\n      log1\n        /* \"Calculator.sol\":989:1155  function addition(uint256 num1_, uint256 num2_) public returns(uint256 result_) {... */\n      swap3\n      swap2\n      pop\n      pop\n      jump\t// out\n        /* \"Calculator.sol\":153:179  uint256 public result = 10 */\n    tag_28:\n      sload(0x00)\n      dup2\n      jump\t// out\n        /* \"Calculator.sol\":1767:1869  function multiplier2(uint256 num1_) public checknumber(num1_) {... */\n    tag_32:\n        /* \"Calculator.sol\":1822:1827  num1_ */\n      dup1\n        /* \"Calculator.sol\":366:368  10 */\n      0x0a\n        /* \"Calculator.sol\":357:362  num1_ */\n      dup2\n        /* \"Calculator.sol\":357:368  num1_ != 10 */\n      eq\n        /* \"Calculator.sol\":353:378  if (num1_ != 10) revert() */\n      tag_53\n      jumpi\n        /* \"Calculator.sol\":370:378  revert() */\n      0x00\n      dup1\n      revert\n        /* \"Calculator.sol\":353:378  if (num1_ != 10) revert() */\n    tag_53:\n        /* \"Calculator.sol\":1857:1862  num1_ */\n      dup2\n        /* \"Calculator.sol\":1848:1854  result */\n      sload(0x00)\n        /* \"Calculator.sol\":1848:1862  result * num1_ */\n      tag_55\n      swap2\n      swap1\n      tag_43\n      jump\t// in\n    tag_55:\n        /* \"Calculator.sol\":1839:1845  result */\n      0x00\n        /* \"Calculator.sol\":1839:1862  result = result * num1_ */\n      dup2\n      swap1\n      sstore\n      pop\n        /* \"Calculator.sol\":1767:1869  function multiplier2(uint256 num1_) public checknumber(num1_) {... */\n      pop\n      pop\n      jump\t// out\n        /* \"Calculator.sol\":1218:1419  function substraction(uint256 num1_, uint256 num2_) public returns(uint256 result_) {... */\n    tag_35:\n        /* \"Calculator.sol\":1285:1300  uint256 result_ */\n      0x00\n        /* \"Calculator.sol\":1322:1354  substraction_logic(num1_, num2_) */\n      tag_57\n        /* \"Calculator.sol\":1341:1346  num1_ */\n      dup4\n        /* \"Calculator.sol\":1348:1353  num2_ */\n      dup4\n        /* \"Calculator.sol\":1322:1340  substraction_logic */\n      tag_58\n        /* \"Calculator.sol\":1322:1354  substraction_logic(num1_, num2_) */\n      jump\t// in\n    tag_57:\n        /* \"Calculator.sol\":1312:1354  result_ = substraction_logic(num1_, num2_) */\n      swap1\n      pop\n        /* \"Calculator.sol\":1378:1412  Substraction(num1_, num2_, result) */\n      0x02325f53408b10d20290d06f069ad56eb7ecae5db225e14d71cda2c523652c5b\n        /* \"Calculator.sol\":1391:1396  num1_ */\n      dup4\n        /* \"Calculator.sol\":1398:1403  num2_ */\n      dup4\n        /* \"Calculator.sol\":1405:1411  result */\n      sload(0x00)\n        /* \"Calculator.sol\":1378:1412  Substraction(num1_, num2_, result) */\n      mload(0x40)\n      tag_59\n      swap4\n      swap3\n      swap2\n      swap1\n      tag_51\n      jump\t// in\n    tag_59:\n      mload(0x40)\n      dup1\n      swap2\n      sub\n      swap1\n      log1\n        /* \"Calculator.sol\":1218:1419  function substraction(uint256 num1_, uint256 num2_) public returns(uint256 result_) {... */\n      swap3\n      swap2\n      pop\n      pop\n      jump\t// out\n        /* \"Calculator.sol\":1891:2100  function division(uint256 num1_, uint256 num2_) public checkreminder(num1_, num2_) returns(uint256 result_) {... */\n    tag_39:\n        /* \"Calculator.sol\":1982:1997  uint256 result_ */\n      0x00\n        /* \"Calculator.sol\":1960:1965  num1_ */\n      dup3\n        /* \"Calculator.sol\":1967:1972  num2_ */\n      dup3\n        /* \"Calculator.sol\":556:557  0 */\n      0x00\n        /* \"Calculator.sol\":548:553  num2_ */\n      dup2\n        /* \"Calculator.sol\":548:557  num2_ > 0 */\n      gt\n        /* \"Calculator.sol\":539:611  require( num2_ > 0, \"The denominator ('num2_') must be greater than 0.\") */\n      tag_61\n      jumpi\n      mload(0x40)\n      0x08c379a000000000000000000000000000000000000000000000000000000000\n      dup2\n      mstore\n      0x04\n      add\n      tag_62\n      swap1\n      tag_63\n      jump\t// in\n    tag_62:\n      mload(0x40)\n      dup1\n      swap2\n      sub\n      swap1\n      revert\n    tag_61:\n        /* \"Calculator.sol\":642:643  0 */\n      0x00\n        /* \"Calculator.sol\":633:638  num2_ */\n      dup2\n        /* \"Calculator.sol\":625:630  num1_ */\n      dup4\n        /* \"Calculator.sol\":625:638  num1_ % num2_ */\n      tag_64\n      swap2\n      swap1\n      tag_65\n      jump\t// in\n    tag_64:\n        /* \"Calculator.sol\":625:643  num1_ % num2_ != 0 */\n      eq\n        /* \"Calculator.sol\":621:694  if (num1_ % num2_ != 0) revert(\"The reminder of the division must be 0.\") */\n      tag_66\n      jumpi\n        /* \"Calculator.sol\":645:694  revert(\"The reminder of the division must be 0.\") */\n      mload(0x40)\n      0x08c379a000000000000000000000000000000000000000000000000000000000\n      dup2\n      mstore\n      0x04\n      add\n      tag_67\n      swap1\n      tag_68\n      jump\t// in\n    tag_67:\n      mload(0x40)\n      dup1\n      swap2\n      sub\n      swap1\n      revert\n        /* \"Calculator.sol\":621:694  if (num1_ % num2_ != 0) revert(\"The reminder of the division must be 0.\") */\n    tag_66:\n        /* \"Calculator.sol\":2019:2047  division_logic(num1_, num2_) */\n      tag_70\n        /* \"Calculator.sol\":2034:2039  num1_ */\n      dup6\n        /* \"Calculator.sol\":2041:2046  num2_ */\n      dup6\n        /* \"Calculator.sol\":2019:2033  division_logic */\n      tag_71\n        /* \"Calculator.sol\":2019:2047  division_logic(num1_, num2_) */\n      jump\t// in\n    tag_70:\n        /* \"Calculator.sol\":2009:2047  result_ = division_logic(num1_, num2_) */\n      swap3\n      pop\n        /* \"Calculator.sol\":2063:2093  Division(num1_, num2_, result) */\n      0xd8ef84f712e41d28f98fe74cd153013023d849514d0a40ee61834f3c385055ce\n        /* \"Calculator.sol\":2072:2077  num1_ */\n      dup6\n        /* \"Calculator.sol\":2079:2084  num2_ */\n      dup6\n        /* \"Calculator.sol\":2086:2092  result */\n      sload(0x00)\n        /* \"Calculator.sol\":2063:2093  Division(num1_, num2_, result) */\n      mload(0x40)\n      tag_72\n      swap4\n      swap3\n      swap2\n      swap1\n      tag_51\n      jump\t// in\n    tag_72:\n      mload(0x40)\n      dup1\n      swap2\n      sub\n      swap1\n      log1\n        /* \"Calculator.sol\":1891:2100  function division(uint256 num1_, uint256 num2_) public checkreminder(num1_, num2_) returns(uint256 result_) {... */\n      pop\n      pop\n      swap3\n      swap2\n      pop\n      pop\n      jump\t// out\n        /* \"Calculator.sol\":2275:2410  function substraction_logic2(int256 num1_, int256 num2_) internal pure returns(int256 result_) {... */\n    tag_46:\n        /* \"Calculator.sol\":2354:2368  int256 result_ */\n      0x00\n        /* \"Calculator.sol\":2398:2403  num2_ */\n      dup2\n        /* \"Calculator.sol\":2390:2395  num1_ */\n      dup4\n        /* \"Calculator.sol\":2390:2403  num1_ - num2_ */\n      tag_74\n      swap2\n      swap1\n      tag_75\n      jump\t// in\n    tag_74:\n        /* \"Calculator.sol\":2380:2403  result_ = num1_ - num2_ */\n      swap1\n      pop\n        /* \"Calculator.sol\":2275:2410  function substraction_logic2(int256 num1_, int256 num2_) internal pure returns(int256 result_) {... */\n      swap3\n      swap2\n      pop\n      pop\n      jump\t// out\n        /* \"Calculator.sol\":2132:2269  function substraction_logic(uint256 num1_, uint256 num2_) internal pure returns(uint256 result_) {... */\n    tag_58:\n        /* \"Calculator.sol\":2212:2227  uint256 result_ */\n      0x00\n        /* \"Calculator.sol\":2257:2262  num2_ */\n      dup2\n        /* \"Calculator.sol\":2249:2254  num1_ */\n      dup4\n        /* \"Calculator.sol\":2249:2262  num1_ - num2_ */\n      tag_77\n      swap2\n      swap1\n      tag_78\n      jump\t// in\n    tag_77:\n        /* \"Calculator.sol\":2239:2262  result_ = num1_ - num2_ */\n      swap1\n      pop\n        /* \"Calculator.sol\":2132:2269  function substraction_logic(uint256 num1_, uint256 num2_) internal pure returns(uint256 result_) {... */\n      swap3\n      swap2\n      pop\n      pop\n      jump\t// out\n        /* \"Calculator.sol\":2450:2583  function division_logic(uint256 num1_, uint256 num2_) internal pure returns(uint256 result_) {... */\n    tag_71:\n        /* \"Calculator.sol\":2526:2541  uint256 result_ */\n      0x00\n        /* \"Calculator.sol\":2571:2576  num2_ */\n      dup2\n        /* \"Calculator.sol\":2563:2568  num1_ */\n      dup4\n        /* \"Calculator.sol\":2563:2576  num1_ / num2_ */\n      tag_80\n      swap2\n      swap1\n      tag_81\n      jump\t// in\n    tag_80:\n        /* \"Calculator.sol\":2553:2576  result_ = num1_ / num2_ */\n      swap1\n      pop\n        /* \"Calculator.sol\":2450:2583  function division_logic(uint256 num1_, uint256 num2_) internal pure returns(uint256 result_) {... */\n      swap3\n      swap2\n      pop\n      pop\n      jump\t// out\n        /* \"#utility.yul\":88:205   */\n    tag_83:\n        /* \"#utility.yul\":197:198   */\n      0x00\n        /* \"#utility.yul\":194:195   */\n      dup1\n        /* \"#utility.yul\":187:199   */\n      revert\n        /* \"#utility.yul\":334:411   */\n    tag_85:\n        /* \"#utility.yul\":371:378   */\n      0x00\n        /* \"#utility.yul\":400:405   */\n      dup2\n        /* \"#utility.yul\":389:405   */\n      swap1\n      pop\n        /* \"#utility.yul\":334:411   */\n      swap2\n      swap1\n      pop\n      jump\t// out\n        /* \"#utility.yul\":417:539   */\n    tag_86:\n        /* \"#utility.yul\":490:514   */\n      tag_106\n        /* \"#utility.yul\":508:513   */\n      dup2\n        /* \"#utility.yul\":490:514   */\n      tag_85\n      jump\t// in\n    tag_106:\n        /* \"#utility.yul\":483:488   */\n      dup2\n        /* \"#utility.yul\":480:515   */\n      eq\n        /* \"#utility.yul\":470:533   */\n      tag_107\n      jumpi\n        /* \"#utility.yul\":529:530   */\n      0x00\n        /* \"#utility.yul\":526:527   */\n      dup1\n        /* \"#utility.yul\":519:531   */\n      revert\n        /* \"#utility.yul\":470:533   */\n    tag_107:\n        /* \"#utility.yul\":417:539   */\n      pop\n      jump\t// out\n        /* \"#utility.yul\":545:684   */\n    tag_87:\n        /* \"#utility.yul\":591:596   */\n      0x00\n        /* \"#utility.yul\":629:635   */\n      dup2\n        /* \"#utility.yul\":616:636   */\n      calldataload\n        /* \"#utility.yul\":607:636   */\n      swap1\n      pop\n        /* \"#utility.yul\":645:678   */\n      tag_109\n        /* \"#utility.yul\":672:677   */\n      dup2\n        /* \"#utility.yul\":645:678   */\n      tag_86\n      jump\t// in\n    tag_109:\n        /* \"#utility.yul\":545:684   */\n      swap3\n      swap2\n      pop\n      pop\n      jump\t// out\n        /* \"#utility.yul\":690:1019   */\n    tag_13:\n        /* \"#utility.yul\":749:755   */\n      0x00\n        /* \"#utility.yul\":798:800   */\n      0x20\n        /* \"#utility.yul\":786:795   */\n      dup3\n        /* \"#utility.yul\":777:784   */\n      dup5\n        /* \"#utility.yul\":773:796   */\n      sub\n        /* \"#utility.yul\":769:801   */\n      slt\n        /* \"#utility.yul\":766:885   */\n      iszero\n      tag_111\n      jumpi\n        /* \"#utility.yul\":804:883   */\n      tag_112\n      tag_83\n      jump\t// in\n    tag_112:\n        /* \"#utility.yul\":766:885   */\n    tag_111:\n        /* \"#utility.yul\":924:925   */\n      0x00\n        /* \"#utility.yul\":949:1002   */\n      tag_113\n        /* \"#utility.yul\":994:1001   */\n      dup5\n        /* \"#utility.yul\":985:991   */\n      dup3\n        /* \"#utility.yul\":974:983   */\n      dup6\n        /* \"#utility.yul\":970:992   */\n      add\n        /* \"#utility.yul\":949:1002   */\n      tag_87\n      jump\t// in\n    tag_113:\n        /* \"#utility.yul\":939:1002   */\n      swap2\n      pop\n        /* \"#utility.yul\":895:1012   */\n      pop\n        /* \"#utility.yul\":690:1019   */\n      swap3\n      swap2\n      pop\n      pop\n      jump\t// out\n        /* \"#utility.yul\":1025:1101   */\n    tag_88:\n        /* \"#utility.yul\":1061:1068   */\n      0x00\n        /* \"#utility.yul\":1090:1095   */\n      dup2\n        /* \"#utility.yul\":1079:1095   */\n      swap1\n      pop\n        /* \"#utility.yul\":1025:1101   */\n      swap2\n      swap1\n      pop\n      jump\t// out\n        /* \"#utility.yul\":1107:1227   */\n    tag_89:\n        /* \"#utility.yul\":1179:1202   */\n      tag_116\n        /* \"#utility.yul\":1196:1201   */\n      dup2\n        /* \"#utility.yul\":1179:1202   */\n      tag_88\n      jump\t// in\n    tag_116:\n        /* \"#utility.yul\":1172:1177   */\n      dup2\n        /* \"#utility.yul\":1169:1203   */\n      eq\n        /* \"#utility.yul\":1159:1221   */\n      tag_117\n      jumpi\n        /* \"#utility.yul\":1217:1218   */\n      0x00\n        /* \"#utility.yul\":1214:1215   */\n      dup1\n        /* \"#utility.yul\":1207:1219   */\n      revert\n        /* \"#utility.yul\":1159:1221   */\n    tag_117:\n        /* \"#utility.yul\":1107:1227   */\n      pop\n      jump\t// out\n        /* \"#utility.yul\":1233:1370   */\n    tag_90:\n        /* \"#utility.yul\":1278:1283   */\n      0x00\n        /* \"#utility.yul\":1316:1322   */\n      dup2\n        /* \"#utility.yul\":1303:1323   */\n      calldataload\n        /* \"#utility.yul\":1294:1323   */\n      swap1\n      pop\n        /* \"#utility.yul\":1332:1364   */\n      tag_119\n        /* \"#utility.yul\":1358:1363   */\n      dup2\n        /* \"#utility.yul\":1332:1364   */\n      tag_89\n      jump\t// in\n    tag_119:\n        /* \"#utility.yul\":1233:1370   */\n      swap3\n      swap2\n      pop\n      pop\n      jump\t// out\n        /* \"#utility.yul\":1376:1846   */\n    tag_17:\n        /* \"#utility.yul\":1442:1448   */\n      0x00\n        /* \"#utility.yul\":1450:1456   */\n      dup1\n        /* \"#utility.yul\":1499:1501   */\n      0x40\n        /* \"#utility.yul\":1487:1496   */\n      dup4\n        /* \"#utility.yul\":1478:1485   */\n      dup6\n        /* \"#utility.yul\":1474:1497   */\n      sub\n        /* \"#utility.yul\":1470:1502   */\n      slt\n        /* \"#utility.yul\":1467:1586   */\n      iszero\n      tag_121\n      jumpi\n        /* \"#utility.yul\":1505:1584   */\n      tag_122\n      tag_83\n      jump\t// in\n    tag_122:\n        /* \"#utility.yul\":1467:1586   */\n    tag_121:\n        /* \"#utility.yul\":1625:1626   */\n      0x00\n        /* \"#utility.yul\":1650:1702   */\n      tag_123\n        /* \"#utility.yul\":1694:1701   */\n      dup6\n        /* \"#utility.yul\":1685:1691   */\n      dup3\n        /* \"#utility.yul\":1674:1683   */\n      dup7\n        /* \"#utility.yul\":1670:1692   */\n      add\n        /* \"#utility.yul\":1650:1702   */\n      tag_90\n      jump\t// in\n    tag_123:\n        /* \"#utility.yul\":1640:1702   */\n      swap3\n      pop\n        /* \"#utility.yul\":1596:1712   */\n      pop\n        /* \"#utility.yul\":1751:1753   */\n      0x20\n        /* \"#utility.yul\":1777:1829   */\n      tag_124\n        /* \"#utility.yul\":1821:1828   */\n      dup6\n        /* \"#utility.yul\":1812:1818   */\n      dup3\n        /* \"#utility.yul\":1801:1810   */\n      dup7\n        /* \"#utility.yul\":1797:1819   */\n      add\n        /* \"#utility.yul\":1777:1829   */\n      tag_90\n      jump\t// in\n    tag_124:\n        /* \"#utility.yul\":1767:1829   */\n      swap2\n      pop\n        /* \"#utility.yul\":1722:1839   */\n      pop\n        /* \"#utility.yul\":1376:1846   */\n      swap3\n      pop\n      swap3\n      swap1\n      pop\n      jump\t// out\n        /* \"#utility.yul\":1852:1967   */\n    tag_91:\n        /* \"#utility.yul\":1937:1960   */\n      tag_126\n        /* \"#utility.yul\":1954:1959   */\n      dup2\n        /* \"#utility.yul\":1937:1960   */\n      tag_88\n      jump\t// in\n    tag_126:\n        /* \"#utility.yul\":1932:1935   */\n      dup3\n        /* \"#utility.yul\":1925:1961   */\n      mstore\n        /* \"#utility.yul\":1852:1967   */\n      pop\n      pop\n      jump\t// out\n        /* \"#utility.yul\":1973:2191   */\n    tag_20:\n        /* \"#utility.yul\":2064:2068   */\n      0x00\n        /* \"#utility.yul\":2102:2104   */\n      0x20\n        /* \"#utility.yul\":2091:2100   */\n      dup3\n        /* \"#utility.yul\":2087:2105   */\n      add\n        /* \"#utility.yul\":2079:2105   */\n      swap1\n      pop\n        /* \"#utility.yul\":2115:2184   */\n      tag_128\n        /* \"#utility.yul\":2181:2182   */\n      0x00\n        /* \"#utility.yul\":2170:2179   */\n      dup4\n        /* \"#utility.yul\":2166:2183   */\n      add\n        /* \"#utility.yul\":2157:2163   */\n      dup5\n        /* \"#utility.yul\":2115:2184   */\n      tag_91\n      jump\t// in\n    tag_128:\n        /* \"#utility.yul\":1973:2191   */\n      swap3\n      swap2\n      pop\n      pop\n      jump\t// out\n        /* \"#utility.yul\":2197:2671   */\n    tag_23:\n        /* \"#utility.yul\":2265:2271   */\n      0x00\n        /* \"#utility.yul\":2273:2279   */\n      dup1\n        /* \"#utility.yul\":2322:2324   */\n      0x40\n        /* \"#utility.yul\":2310:2319   */\n      dup4\n        /* \"#utility.yul\":2301:2308   */\n      dup6\n        /* \"#utility.yul\":2297:2320   */\n      sub\n        /* \"#utility.yul\":2293:2325   */\n      slt\n        /* \"#utility.yul\":2290:2409   */\n      iszero\n      tag_130\n      jumpi\n        /* \"#utility.yul\":2328:2407   */\n      tag_131\n      tag_83\n      jump\t// in\n    tag_131:\n        /* \"#utility.yul\":2290:2409   */\n    tag_130:\n        /* \"#utility.yul\":2448:2449   */\n      0x00\n        /* \"#utility.yul\":2473:2526   */\n      tag_132\n        /* \"#utility.yul\":2518:2525   */\n      dup6\n        /* \"#utility.yul\":2509:2515   */\n      dup3\n        /* \"#utility.yul\":2498:2507   */\n      dup7\n        /* \"#utility.yul\":2494:2516   */\n      add\n        /* \"#utility.yul\":2473:2526   */\n      tag_87\n      jump\t// in\n    tag_132:\n        /* \"#utility.yul\":2463:2526   */\n      swap3\n      pop\n        /* \"#utility.yul\":2419:2536   */\n      pop\n        /* \"#utility.yul\":2575:2577   */\n      0x20\n        /* \"#utility.yul\":2601:2654   */\n      tag_133\n        /* \"#utility.yul\":2646:2653   */\n      dup6\n        /* \"#utility.yul\":2637:2643   */\n      dup3\n        /* \"#utility.yul\":2626:2635   */\n      dup7\n        /* \"#utility.yul\":2622:2644   */\n      add\n        /* \"#utility.yul\":2601:2654   */\n      tag_87\n      jump\t// in\n    tag_133:\n        /* \"#utility.yul\":2591:2654   */\n      swap2\n      pop\n        /* \"#utility.yul\":2546:2664   */\n      pop\n        /* \"#utility.yul\":2197:2671   */\n      swap3\n      pop\n      swap3\n      swap1\n      pop\n      jump\t// out\n        /* \"#utility.yul\":2677:2795   */\n    tag_92:\n        /* \"#utility.yul\":2764:2788   */\n      tag_135\n        /* \"#utility.yul\":2782:2787   */\n      dup2\n        /* \"#utility.yul\":2764:2788   */\n      tag_85\n      jump\t// in\n    tag_135:\n        /* \"#utility.yul\":2759:2762   */\n      dup3\n        /* \"#utility.yul\":2752:2789   */\n      mstore\n        /* \"#utility.yul\":2677:2795   */\n      pop\n      pop\n      jump\t// out\n        /* \"#utility.yul\":2801:3023   */\n    tag_26:\n        /* \"#utility.yul\":2894:2898   */\n      0x00\n        /* \"#utility.yul\":2932:2934   */\n      0x20\n        /* \"#utility.yul\":2921:2930   */\n      dup3\n        /* \"#utility.yul\":2917:2935   */\n      add\n        /* \"#utility.yul\":2909:2935   */\n      swap1\n      pop\n        /* \"#utility.yul\":2945:3016   */\n      tag_137\n        /* \"#utility.yul\":3013:3014   */\n      0x00\n        /* \"#utility.yul\":3002:3011   */\n      dup4\n        /* \"#utility.yul\":2998:3015   */\n      add\n        /* \"#utility.yul\":2989:2995   */\n      dup5\n        /* \"#utility.yul\":2945:3016   */\n      tag_92\n      jump\t// in\n    tag_137:\n        /* \"#utility.yul\":2801:3023   */\n      swap3\n      swap2\n      pop\n      pop\n      jump\t// out\n        /* \"#utility.yul\":3029:3209   */\n    tag_93:\n        /* \"#utility.yul\":3077:3154   */\n      0x4e487b7100000000000000000000000000000000000000000000000000000000\n        /* \"#utility.yul\":3074:3075   */\n      0x00\n        /* \"#utility.yul\":3067:3155   */\n      mstore\n        /* \"#utility.yul\":3174:3178   */\n      0x11\n        /* \"#utility.yul\":3171:3172   */\n      0x04\n        /* \"#utility.yul\":3164:3179   */\n      mstore\n        /* \"#utility.yul\":3198:3202   */\n      0x24\n        /* \"#utility.yul\":3195:3196   */\n      0x00\n        /* \"#utility.yul\":3188:3203   */\n      revert\n        /* \"#utility.yul\":3215:3625   */\n    tag_43:\n        /* \"#utility.yul\":3255:3262   */\n      0x00\n        /* \"#utility.yul\":3278:3298   */\n      tag_140\n        /* \"#utility.yul\":3296:3297   */\n      dup3\n        /* \"#utility.yul\":3278:3298   */\n      tag_85\n      jump\t// in\n    tag_140:\n        /* \"#utility.yul\":3273:3298   */\n      swap2\n      pop\n        /* \"#utility.yul\":3312:3332   */\n      tag_141\n        /* \"#utility.yul\":3330:3331   */\n      dup4\n        /* \"#utility.yul\":3312:3332   */\n      tag_85\n      jump\t// in\n    tag_141:\n        /* \"#utility.yul\":3307:3332   */\n      swap3\n      pop\n        /* \"#utility.yul\":3367:3368   */\n      dup3\n        /* \"#utility.yul\":3364:3365   */\n      dup3\n        /* \"#utility.yul\":3360:3369   */\n      mul\n        /* \"#utility.yul\":3389:3419   */\n      tag_142\n        /* \"#utility.yul\":3407:3418   */\n      dup2\n        /* \"#utility.yul\":3389:3419   */\n      tag_85\n      jump\t// in\n    tag_142:\n        /* \"#utility.yul\":3378:3419   */\n      swap2\n      pop\n        /* \"#utility.yul\":3568:3569   */\n      dup3\n        /* \"#utility.yul\":3559:3566   */\n      dup3\n        /* \"#utility.yul\":3555:3570   */\n      div\n        /* \"#utility.yul\":3552:3553   */\n      dup5\n        /* \"#utility.yul\":3549:3571   */\n      eq\n        /* \"#utility.yul\":3529:3530   */\n      dup4\n        /* \"#utility.yul\":3522:3531   */\n      iszero\n        /* \"#utility.yul\":3502:3585   */\n      or\n        /* \"#utility.yul\":3479:3618   */\n      tag_143\n      jumpi\n        /* \"#utility.yul\":3598:3616   */\n      tag_144\n      tag_93\n      jump\t// in\n    tag_144:\n        /* \"#utility.yul\":3479:3618   */\n    tag_143:\n        /* \"#utility.yul\":3263:3625   */\n      pop\n        /* \"#utility.yul\":3215:3625   */\n      swap3\n      swap2\n      pop\n      pop\n      jump\t// out\n        /* \"#utility.yul\":3631:3822   */\n    tag_49:\n        /* \"#utility.yul\":3671:3674   */\n      0x00\n        /* \"#utility.yul\":3690:3710   */\n      tag_146\n        /* \"#utility.yul\":3708:3709   */\n      dup3\n        /* \"#utility.yul\":3690:3710   */\n      tag_85\n      jump\t// in\n    tag_146:\n        /* \"#utility.yul\":3685:3710   */\n      swap2\n      pop\n        /* \"#utility.yul\":3724:3744   */\n      tag_147\n        /* \"#utility.yul\":3742:3743   */\n      dup4\n        /* \"#utility.yul\":3724:3744   */\n      tag_85\n      jump\t// in\n    tag_147:\n        /* \"#utility.yul\":3719:3744   */\n      swap3\n      pop\n        /* \"#utility.yul\":3767:3768   */\n      dup3\n        /* \"#utility.yul\":3764:3765   */\n      dup3\n        /* \"#utility.yul\":3760:3769   */\n      add\n        /* \"#utility.yul\":3753:3769   */\n      swap1\n      pop\n        /* \"#utility.yul\":3788:3791   */\n      dup1\n        /* \"#utility.yul\":3785:3786   */\n      dup3\n        /* \"#utility.yul\":3782:3792   */\n      gt\n        /* \"#utility.yul\":3779:3815   */\n      iszero\n      tag_148\n      jumpi\n        /* \"#utility.yul\":3795:3813   */\n      tag_149\n      tag_93\n      jump\t// in\n    tag_149:\n        /* \"#utility.yul\":3779:3815   */\n    tag_148:\n        /* \"#utility.yul\":3631:3822   */\n      swap3\n      swap2\n      pop\n      pop\n      jump\t// out\n        /* \"#utility.yul\":3828:4270   */\n    tag_51:\n        /* \"#utility.yul\":3977:3981   */\n      0x00\n        /* \"#utility.yul\":4015:4017   */\n      0x60\n        /* \"#utility.yul\":4004:4013   */\n      dup3\n        /* \"#utility.yul\":4000:4018   */\n      add\n        /* \"#utility.yul\":3992:4018   */\n      swap1\n      pop\n        /* \"#utility.yul\":4028:4099   */\n      tag_151\n        /* \"#utility.yul\":4096:4097   */\n      0x00\n        /* \"#utility.yul\":4085:4094   */\n      dup4\n        /* \"#utility.yul\":4081:4098   */\n      add\n        /* \"#utility.yul\":4072:4078   */\n      dup7\n        /* \"#utility.yul\":4028:4099   */\n      tag_92\n      jump\t// in\n    tag_151:\n        /* \"#utility.yul\":4109:4181   */\n      tag_152\n        /* \"#utility.yul\":4177:4179   */\n      0x20\n        /* \"#utility.yul\":4166:4175   */\n      dup4\n        /* \"#utility.yul\":4162:4180   */\n      add\n        /* \"#utility.yul\":4153:4159   */\n      dup6\n        /* \"#utility.yul\":4109:4181   */\n      tag_92\n      jump\t// in\n    tag_152:\n        /* \"#utility.yul\":4191:4263   */\n      tag_153\n        /* \"#utility.yul\":4259:4261   */\n      0x40\n        /* \"#utility.yul\":4248:4257   */\n      dup4\n        /* \"#utility.yul\":4244:4262   */\n      add\n        /* \"#utility.yul\":4235:4241   */\n      dup5\n        /* \"#utility.yul\":4191:4263   */\n      tag_92\n      jump\t// in\n    tag_153:\n        /* \"#utility.yul\":3828:4270   */\n      swap5\n      swap4\n      pop\n      pop\n      pop\n      pop\n      jump\t// out\n        /* \"#utility.yul\":4276:4445   */\n    tag_94:\n        /* \"#utility.yul\":4360:4371   */\n      0x00\n        /* \"#utility.yul\":4394:4400   */\n      dup3\n        /* \"#utility.yul\":4389:4392   */\n      dup3\n        /* \"#utility.yul\":4382:4401   */\n      mstore\n        /* \"#utility.yul\":4434:4438   */\n      0x20\n        /* \"#utility.yul\":4429:4432   */\n      dup3\n        /* \"#utility.yul\":4425:4439   */\n      add\n        /* \"#utility.yul\":4410:4439   */\n      swap1\n      pop\n        /* \"#utility.yul\":4276:4445   */\n      swap3\n      swap2\n      pop\n      pop\n      jump\t// out\n        /* \"#utility.yul\":4451:4687   */\n    tag_95:\n        /* \"#utility.yul\":4591:4625   */\n      0x5468652064656e6f6d696e61746f722028276e756d325f2729206d7573742062\n        /* \"#utility.yul\":4587:4588   */\n      0x00\n        /* \"#utility.yul\":4579:4585   */\n      dup3\n        /* \"#utility.yul\":4575:4589   */\n      add\n        /* \"#utility.yul\":4568:4626   */\n      mstore\n        /* \"#utility.yul\":4660:4679   */\n      0x652067726561746572207468616e20302e000000000000000000000000000000\n        /* \"#utility.yul\":4655:4657   */\n      0x20\n        /* \"#utility.yul\":4647:4653   */\n      dup3\n        /* \"#utility.yul\":4643:4658   */\n      add\n        /* \"#utility.yul\":4636:4680   */\n      mstore\n        /* \"#utility.yul\":4451:4687   */\n      pop\n      jump\t// out\n        /* \"#utility.yul\":4693:5059   */\n    tag_96:\n        /* \"#utility.yul\":4835:4838   */\n      0x00\n        /* \"#utility.yul\":4856:4923   */\n      tag_157\n        /* \"#utility.yul\":4920:4922   */\n      0x31\n        /* \"#utility.yul\":4915:4918   */\n      dup4\n        /* \"#utility.yul\":4856:4923   */\n      tag_94\n      jump\t// in\n    tag_157:\n        /* \"#utility.yul\":4849:4923   */\n      swap2\n      pop\n        /* \"#utility.yul\":4932:5025   */\n      tag_158\n        /* \"#utility.yul\":5021:5024   */\n      dup3\n        /* \"#utility.yul\":4932:5025   */\n      tag_95\n      jump\t// in\n    tag_158:\n        /* \"#utility.yul\":5050:5052   */\n      0x40\n        /* \"#utility.yul\":5045:5048   */\n      dup3\n        /* \"#utility.yul\":5041:5053   */\n      add\n        /* \"#utility.yul\":5034:5053   */\n      swap1\n      pop\n        /* \"#utility.yul\":4693:5059   */\n      swap2\n      swap1\n      pop\n      jump\t// out\n        /* \"#utility.yul\":5065:5484   */\n    tag_63:\n        /* \"#utility.yul\":5231:5235   */\n      0x00\n        /* \"#utility.yul\":5269:5271   */\n      0x20\n        /* \"#utility.yul\":5258:5267   */\n      dup3\n        /* \"#utility.yul\":5254:5272   */\n      add\n        /* \"#utility.yul\":5246:5272   */\n      swap1\n      pop\n        /* \"#utility.yul\":5318:5327   */\n      dup2\n        /* \"#utility.yul\":5312:5316   */\n      dup2\n        /* \"#utility.yul\":5308:5328   */\n      sub\n        /* \"#utility.yul\":5304:5305   */\n      0x00\n        /* \"#utility.yul\":5293:5302   */\n      dup4\n        /* \"#utility.yul\":5289:5306   */\n      add\n        /* \"#utility.yul\":5282:5329   */\n      mstore\n        /* \"#utility.yul\":5346:5477   */\n      tag_160\n        /* \"#utility.yul\":5472:5476   */\n      dup2\n        /* \"#utility.yul\":5346:5477   */\n      tag_96\n      jump\t// in\n    tag_160:\n        /* \"#utility.yul\":5338:5477   */\n      swap1\n      pop\n        /* \"#utility.yul\":5065:5484   */\n      swap2\n      swap1\n      pop\n      jump\t// out\n        /* \"#utility.yul\":5490:5670   */\n    tag_97:\n        /* \"#utility.yul\":5538:5615   */\n      0x4e487b7100000000000000000000000000000000000000000000000000000000\n        /* \"#utility.yul\":5535:5536   */\n      0x00\n        /* \"#utility.yul\":5528:5616   */\n      mstore\n        /* \"#utility.yul\":5635:5639   */\n      0x12\n        /* \"#utility.yul\":5632:5633   */\n      0x04\n        /* \"#utility.yul\":5625:5640   */\n      mstore\n        /* \"#utility.yul\":5659:5663   */\n      0x24\n        /* \"#utility.yul\":5656:5657   */\n      0x00\n        /* \"#utility.yul\":5649:5664   */\n      revert\n        /* \"#utility.yul\":5676:5852   */\n    tag_65:\n        /* \"#utility.yul\":5708:5709   */\n      0x00\n        /* \"#utility.yul\":5725:5745   */\n      tag_163\n        /* \"#utility.yul\":5743:5744   */\n      dup3\n        /* \"#utility.yul\":5725:5745   */\n      tag_85\n      jump\t// in\n    tag_163:\n        /* \"#utility.yul\":5720:5745   */\n      swap2\n      pop\n        /* \"#utility.yul\":5759:5779   */\n      tag_164\n        /* \"#utility.yul\":5777:5778   */\n      dup4\n        /* \"#utility.yul\":5759:5779   */\n      tag_85\n      jump\t// in\n    tag_164:\n        /* \"#utility.yul\":5754:5779   */\n      swap3\n      pop\n        /* \"#utility.yul\":5798:5799   */\n      dup3\n        /* \"#utility.yul\":5788:5823   */\n      tag_165\n      jumpi\n        /* \"#utility.yul\":5803:5821   */\n      tag_166\n      tag_97\n      jump\t// in\n    tag_166:\n        /* \"#utility.yul\":5788:5823   */\n    tag_165:\n        /* \"#utility.yul\":5844:5845   */\n      dup3\n        /* \"#utility.yul\":5841:5842   */\n      dup3\n        /* \"#utility.yul\":5837:5846   */\n      mod\n        /* \"#utility.yul\":5832:5846   */\n      swap1\n      pop\n        /* \"#utility.yul\":5676:5852   */\n      swap3\n      swap2\n      pop\n      pop\n      jump\t// out\n        /* \"#utility.yul\":5858:6084   */\n    tag_98:\n        /* \"#utility.yul\":5998:6032   */\n      0x5468652072656d696e646572206f6620746865206469766973696f6e206d7573\n        /* \"#utility.yul\":5994:5995   */\n      0x00\n        /* \"#utility.yul\":5986:5992   */\n      dup3\n        /* \"#utility.yul\":5982:5996   */\n      add\n        /* \"#utility.yul\":5975:6033   */\n      mstore\n        /* \"#utility.yul\":6067:6076   */\n      0x7420626520302e00000000000000000000000000000000000000000000000000\n        /* \"#utility.yul\":6062:6064   */\n      0x20\n        /* \"#utility.yul\":6054:6060   */\n      dup3\n        /* \"#utility.yul\":6050:6065   */\n      add\n        /* \"#utility.yul\":6043:6077   */\n      mstore\n        /* \"#utility.yul\":5858:6084   */\n      pop\n      jump\t// out\n        /* \"#utility.yul\":6090:6456   */\n    tag_99:\n        /* \"#utility.yul\":6232:6235   */\n      0x00\n        /* \"#utility.yul\":6253:6320   */\n      tag_169\n        /* \"#utility.yul\":6317:6319   */\n      0x27\n        /* \"#utility.yul\":6312:6315   */\n      dup4\n        /* \"#utility.yul\":6253:6320   */\n      tag_94\n      jump\t// in\n    tag_169:\n        /* \"#utility.yul\":6246:6320   */\n      swap2\n      pop\n        /* \"#utility.yul\":6329:6422   */\n      tag_170\n        /* \"#utility.yul\":6418:6421   */\n      dup3\n        /* \"#utility.yul\":6329:6422   */\n      tag_98\n      jump\t// in\n    tag_170:\n        /* \"#utility.yul\":6447:6449   */\n      0x40\n        /* \"#utility.yul\":6442:6445   */\n      dup3\n        /* \"#utility.yul\":6438:6450   */\n      add\n        /* \"#utility.yul\":6431:6450   */\n      swap1\n      pop\n        /* \"#utility.yul\":6090:6456   */\n      swap2\n      swap1\n      pop\n      jump\t// out\n        /* \"#utility.yul\":6462:6881   */\n    tag_68:\n        /* \"#utility.yul\":6628:6632   */\n      0x00\n        /* \"#utility.yul\":6666:6668   */\n      0x20\n        /* \"#utility.yul\":6655:6664   */\n      dup3\n        /* \"#utility.yul\":6651:6669   */\n      add\n        /* \"#utility.yul\":6643:6669   */\n      swap1\n      pop\n        /* \"#utility.yul\":6715:6724   */\n      dup2\n        /* \"#utility.yul\":6709:6713   */\n      dup2\n        /* \"#utility.yul\":6705:6725   */\n      sub\n        /* \"#utility.yul\":6701:6702   */\n      0x00\n        /* \"#utility.yul\":6690:6699   */\n      dup4\n        /* \"#utility.yul\":6686:6703   */\n      add\n        /* \"#utility.yul\":6679:6726   */\n      mstore\n        /* \"#utility.yul\":6743:6874   */\n      tag_172\n        /* \"#utility.yul\":6869:6873   */\n      dup2\n        /* \"#utility.yul\":6743:6874   */\n      tag_99\n      jump\t// in\n    tag_172:\n        /* \"#utility.yul\":6735:6874   */\n      swap1\n      pop\n        /* \"#utility.yul\":6462:6881   */\n      swap2\n      swap1\n      pop\n      jump\t// out\n        /* \"#utility.yul\":6887:7259   */\n    tag_75:\n        /* \"#utility.yul\":6926:6930   */\n      0x00\n        /* \"#utility.yul\":6946:6965   */\n      tag_174\n        /* \"#utility.yul\":6963:6964   */\n      dup3\n        /* \"#utility.yul\":6946:6965   */\n      tag_88\n      jump\t// in\n    tag_174:\n        /* \"#utility.yul\":6941:6965   */\n      swap2\n      pop\n        /* \"#utility.yul\":6979:6998   */\n      tag_175\n        /* \"#utility.yul\":6996:6997   */\n      dup4\n        /* \"#utility.yul\":6979:6998   */\n      tag_88\n      jump\t// in\n    tag_175:\n        /* \"#utility.yul\":6974:6998   */\n      swap3\n      pop\n        /* \"#utility.yul\":7022:7023   */\n      dup3\n        /* \"#utility.yul\":7019:7020   */\n      dup3\n        /* \"#utility.yul\":7015:7024   */\n      sub\n        /* \"#utility.yul\":7007:7024   */\n      swap1\n      pop\n        /* \"#utility.yul\":7216:7217   */\n      dup2\n        /* \"#utility.yul\":7210:7214   */\n      dup2\n        /* \"#utility.yul\":7206:7218   */\n      slt\n        /* \"#utility.yul\":7202:7203   */\n      0x00\n        /* \"#utility.yul\":7199:7200   */\n      dup5\n        /* \"#utility.yul\":7195:7204   */\n      slt\n        /* \"#utility.yul\":7191:7219   */\n      and\n        /* \"#utility.yul\":7174:7175   */\n      dup3\n        /* \"#utility.yul\":7168:7172   */\n      dup3\n        /* \"#utility.yul\":7164:7176   */\n      sgt\n        /* \"#utility.yul\":7159:7160   */\n      0x00\n        /* \"#utility.yul\":7156:7157   */\n      dup6\n        /* \"#utility.yul\":7152:7161   */\n      slt\n        /* \"#utility.yul\":7145:7162   */\n      iszero\n        /* \"#utility.yul\":7141:7177   */\n      and\n        /* \"#utility.yul\":7125:7229   */\n      or\n        /* \"#utility.yul\":7122:7252   */\n      iszero\n      tag_176\n      jumpi\n        /* \"#utility.yul\":7232:7250   */\n      tag_177\n      tag_93\n      jump\t// in\n    tag_177:\n        /* \"#utility.yul\":7122:7252   */\n    tag_176:\n        /* \"#utility.yul\":6887:7259   */\n      swap3\n      swap2\n      pop\n      pop\n      jump\t// out\n        /* \"#utility.yul\":7265:7459   */\n    tag_78:\n        /* \"#utility.yul\":7305:7309   */\n      0x00\n        /* \"#utility.yul\":7325:7345   */\n      tag_179\n        /* \"#utility.yul\":7343:7344   */\n      dup3\n        /* \"#utility.yul\":7325:7345   */\n      tag_85\n      jump\t// in\n    tag_179:\n        /* \"#utility.yul\":7320:7345   */\n      swap2\n      pop\n        /* \"#utility.yul\":7359:7379   */\n      tag_180\n        /* \"#utility.yul\":7377:7378   */\n      dup4\n        /* \"#utility.yul\":7359:7379   */\n      tag_85\n      jump\t// in\n    tag_180:\n        /* \"#utility.yul\":7354:7379   */\n      swap3\n      pop\n        /* \"#utility.yul\":7403:7404   */\n      dup3\n        /* \"#utility.yul\":7400:7401   */\n      dup3\n        /* \"#utility.yul\":7396:7405   */\n      sub\n        /* \"#utility.yul\":7388:7405   */\n      swap1\n      pop\n        /* \"#utility.yul\":7427:7428   */\n      dup2\n        /* \"#utility.yul\":7421:7425   */\n      dup2\n        /* \"#utility.yul\":7418:7429   */\n      gt\n        /* \"#utility.yul\":7415:7452   */\n      iszero\n      tag_181\n      jumpi\n        /* \"#utility.yul\":7432:7450   */\n      tag_182\n      tag_93\n      jump\t// in\n    tag_182:\n        /* \"#utility.yul\":7415:7452   */\n    tag_181:\n        /* \"#utility.yul\":7265:7459   */\n      swap3\n      swap2\n      pop\n      pop\n      jump\t// out\n        /* \"#utility.yul\":7465:7650   */\n    tag_81:\n        /* \"#utility.yul\":7505:7506   */\n      0x00\n        /* \"#utility.yul\":7522:7542   */\n      tag_184\n        /* \"#utility.yul\":7540:7541   */\n      dup3\n        /* \"#utility.yul\":7522:7542   */\n      tag_85\n      jump\t// in\n    tag_184:\n        /* \"#utility.yul\":7517:7542   */\n      swap2\n      pop\n        /* \"#utility.yul\":7556:7576   */\n      tag_185\n        /* \"#utility.yul\":7574:7575   */\n      dup4\n        /* \"#utility.yul\":7556:7576   */\n      tag_85\n      jump\t// in\n    tag_185:\n        /* \"#utility.yul\":7551:7576   */\n      swap3\n      pop\n        /* \"#utility.yul\":7595:7596   */\n      dup3\n        /* \"#utility.yul\":7585:7620   */\n      tag_186\n      jumpi\n        /* \"#utility.yul\":7600:7618   */\n      tag_187\n      tag_97\n      jump\t// in\n    tag_187:\n        /* \"#utility.yul\":7585:7620   */\n    tag_186:\n        /* \"#utility.yul\":7642:7643   */\n      dup3\n        /* \"#utility.yul\":7639:7640   */\n      dup3\n        /* \"#utility.yul\":7635:7644   */\n      div\n        /* \"#utility.yul\":7630:7644   */\n      swap1\n      pop\n        /* \"#utility.yul\":7465:7650   */\n      swap3\n      swap2\n      pop\n      pop\n      jump\t// out\n\n    auxdata: 0xa2646970667358221220cc3c29deb9bc8bbc0b4c11afc602fb5a48bc83a300fa483a08078c0dfed1900664736f6c63430008180033\n}\n",
				"bytecode": {
					"linkReferences": {},
					"object": "6080604052600a5f55348015610013575f80fd5b5061083f806100215f395ff3fe608060405234801561000f575f80fd5b506004361061007b575f3560e01c8063653721471161005957806365372147146100fb578063a1623dce14610119578063cdeb331414610135578063e0068052146101655761007b565b806305e30f511461007f5780632efad6091461009b57806354f363a3146100cb575b5f80fd5b610099600480360381019061009491906103dd565b610195565b005b6100b560048036038101906100b0919061043b565b6101aa565b6040516100c29190610488565b60405180910390f35b6100e560048036038101906100e091906104a1565b6101bd565b6040516100f291906104ee565b60405180910390f35b61010361020e565b60405161011091906104ee565b60405180910390f35b610133600480360381019061012e91906103dd565b610213565b005b61014f600480360381019061014a91906104a1565b610236565b60405161015c91906104ee565b60405180910390f35b61017f600480360381019061017a91906104a1565b610285565b60405161018c91906104ee565b60405180910390f35b805f546101a29190610534565b5f8190555050565b5f6101b58383610367565b905092915050565b5f81836101ca9190610575565b90507f099a8fd2a0841afbe8000d711d763bf2c54b2c63bed7b7f92a244ef4f515453683835f54604051610200939291906105a8565b60405180910390a192915050565b5f5481565b80600a8114610220575f80fd5b815f5461022d9190610534565b5f819055505050565b5f610241838361037c565b90507f02325f53408b10d20290d06f069ad56eb7ecae5db225e14d71cda2c523652c5b83835f54604051610277939291906105a8565b60405180910390a192915050565b5f82825f81116102ca576040517f08c379a00000000000000000000000000000000000000000000000000000000081526004016102c19061065d565b60405180910390fd5b5f81836102d791906106a8565b14610317576040517f08c379a000000000000000000000000000000000000000000000000000000000815260040161030e90610748565b60405180910390fd5b6103218585610391565b92507fd8ef84f712e41d28f98fe74cd153013023d849514d0a40ee61834f3c385055ce85855f54604051610357939291906105a8565b60405180910390a1505092915050565b5f81836103749190610766565b905092915050565b5f818361038991906107a6565b905092915050565b5f818361039e91906107d9565b905092915050565b5f80fd5b5f819050919050565b6103bc816103aa565b81146103c6575f80fd5b50565b5f813590506103d7816103b3565b92915050565b5f602082840312156103f2576103f16103a6565b5b5f6103ff848285016103c9565b91505092915050565b5f819050919050565b61041a81610408565b8114610424575f80fd5b50565b5f8135905061043581610411565b92915050565b5f8060408385031215610451576104506103a6565b5b5f61045e85828601610427565b925050602061046f85828601610427565b9150509250929050565b61048281610408565b82525050565b5f60208201905061049b5f830184610479565b92915050565b5f80604083850312156104b7576104b66103a6565b5b5f6104c4858286016103c9565b92505060206104d5858286016103c9565b9150509250929050565b6104e8816103aa565b82525050565b5f6020820190506105015f8301846104df565b92915050565b7f4e487b71000000000000000000000000000000000000000000000000000000005f52601160045260245ffd5b5f61053e826103aa565b9150610549836103aa565b9250828202610557816103aa565b9150828204841483151761056e5761056d610507565b5b5092915050565b5f61057f826103aa565b915061058a836103aa565b92508282019050808211156105a2576105a1610507565b5b92915050565b5f6060820190506105bb5f8301866104df565b6105c860208301856104df565b6105d560408301846104df565b949350505050565b5f82825260208201905092915050565b7f5468652064656e6f6d696e61746f722028276e756d325f2729206d75737420625f8201527f652067726561746572207468616e20302e000000000000000000000000000000602082015250565b5f6106476031836105dd565b9150610652826105ed565b604082019050919050565b5f6020820190508181035f8301526106748161063b565b9050919050565b7f4e487b71000000000000000000000000000000000000000000000000000000005f52601260045260245ffd5b5f6106b2826103aa565b91506106bd836103aa565b9250826106cd576106cc61067b565b5b828206905092915050565b7f5468652072656d696e646572206f6620746865206469766973696f6e206d75735f8201527f7420626520302e00000000000000000000000000000000000000000000000000602082015250565b5f6107326027836105dd565b915061073d826106d8565b604082019050919050565b5f6020820190508181035f83015261075f81610726565b9050919050565b5f61077082610408565b915061077b83610408565b925082820390508181125f8412168282135f8512151617156107a05761079f610507565b5b92915050565b5f6107b0826103aa565b91506107bb836103aa565b92508282039050818111156107d3576107d2610507565b5b92915050565b5f6107e3826103aa565b91506107ee836103aa565b9250826107fe576107fd61067b565b5b82820490509291505056fea2646970667358221220cc3c29deb9bc8bbc0b4c11afc602fb5a48bc83a300fa483a08078c0dfed1900664736f6c63430008180033",
					"opcodes": "PUSH1 0x80 PUSH1 0x40 MSTORE PUSH1 0xA PUSH0 SSTORE CALLVALUE DUP1 ISZERO PUSH2 0x13 JUMPI PUSH0 DUP1 REVERT JUMPDEST POP PUSH2 0x83F DUP1 PUSH2 0x21 PUSH0 CODECOPY PUSH0 RETURN INVALID PUSH1 0x80 PUSH1 0x40 MSTORE CALLVALUE DUP1 ISZERO PUSH2 0xF JUMPI PUSH0 DUP1 REVERT JUMPDEST POP PUSH1 0x4 CALLDATASIZE LT PUSH2 0x7B JUMPI PUSH0 CALLDATALOAD PUSH1 0xE0 SHR DUP1 PUSH4 0x65372147 GT PUSH2 0x59 JUMPI DUP1 PUSH4 0x65372147 EQ PUSH2 0xFB JUMPI DUP1 PUSH4 0xA1623DCE EQ PUSH2 0x119 JUMPI DUP1 PUSH4 0xCDEB3314 EQ PUSH2 0x135 JUMPI DUP1 PUSH4 0xE0068052 EQ PUSH2 0x165 JUMPI PUSH2 0x7B JUMP JUMPDEST DUP1 PUSH4 0x5E30F51 EQ PUSH2 0x7F JUMPI DUP1 PUSH4 0x2EFAD609 EQ PUSH2 0x9B JUMPI DUP1 PUSH4 0x54F363A3 EQ PUSH2 0xCB JUMPI JUMPDEST PUSH0 DUP1 REVERT JUMPDEST PUSH2 0x99 PUSH1 0x4 DUP1 CALLDATASIZE SUB DUP2 ADD SWAP1 PUSH2 0x94 SWAP2 SWAP1 PUSH2 0x3DD JUMP JUMPDEST PUSH2 0x195 JUMP JUMPDEST STOP JUMPDEST PUSH2 0xB5 PUSH1 0x4 DUP1 CALLDATASIZE SUB DUP2 ADD SWAP1 PUSH2 0xB0 SWAP2 SWAP1 PUSH2 0x43B JUMP JUMPDEST PUSH2 0x1AA JUMP JUMPDEST PUSH1 0x40 MLOAD PUSH2 0xC2 SWAP2 SWAP1 PUSH2 0x488 JUMP JUMPDEST PUSH1 0x40 MLOAD DUP1 SWAP2 SUB SWAP1 RETURN JUMPDEST PUSH2 0xE5 PUSH1 0x4 DUP1 CALLDATASIZE SUB DUP2 ADD SWAP1 PUSH2 0xE0 SWAP2 SWAP1 PUSH2 0x4A1 JUMP JUMPDEST PUSH2 0x1BD JUMP JUMPDEST PUSH1 0x40 MLOAD PUSH2 0xF2 SWAP2 SWAP1 PUSH2 0x4EE JUMP JUMPDEST PUSH1 0x40 MLOAD DUP1 SWAP2 SUB SWAP1 RETURN JUMPDEST PUSH2 0x103 PUSH2 0x20E JUMP JUMPDEST PUSH1 0x40 MLOAD PUSH2 0x110 SWAP2 SWAP1 PUSH2 0x4EE JUMP JUMPDEST PUSH1 0x40 MLOAD DUP1 SWAP2 SUB SWAP1 RETURN JUMPDEST PUSH2 0x133 PUSH1 0x4 DUP1 CALLDATASIZE SUB DUP2 ADD SWAP1 PUSH2 0x12E SWAP2 SWAP1 PUSH2 0x3DD JUMP JUMPDEST PUSH2 0x213 JUMP JUMPDEST STOP JUMPDEST PUSH2 0x14F PUSH1 0x4 DUP1 CALLDATASIZE SUB DUP2 ADD SWAP1 PUSH2 0x14A SWAP2 SWAP1 PUSH2 0x4A1 JUMP JUMPDEST PUSH2 0x236 JUMP JUMPDEST PUSH1 0x40 MLOAD PUSH2 0x15C SWAP2 SWAP1 PUSH2 0x4EE JUMP JUMPDEST PUSH1 0x40 MLOAD DUP1 SWAP2 SUB SWAP1 RETURN JUMPDEST PUSH2 0x17F PUSH1 0x4 DUP1 CALLDATASIZE SUB DUP2 ADD SWAP1 PUSH2 0x17A SWAP2 SWAP1 PUSH2 0x4A1 JUMP JUMPDEST PUSH2 0x285 JUMP JUMPDEST PUSH1 0x40 MLOAD PUSH2 0x18C SWAP2 SWAP1 PUSH2 0x4EE JUMP JUMPDEST PUSH1 0x40 MLOAD DUP1 SWAP2 SUB SWAP1 RETURN JUMPDEST DUP1 PUSH0 SLOAD PUSH2 0x1A2 SWAP2 SWAP1 PUSH2 0x534 JUMP JUMPDEST PUSH0 DUP2 SWAP1 SSTORE POP POP JUMP JUMPDEST PUSH0 PUSH2 0x1B5 DUP4 DUP4 PUSH2 0x367 JUMP JUMPDEST SWAP1 POP SWAP3 SWAP2 POP POP JUMP JUMPDEST PUSH0 DUP2 DUP4 PUSH2 0x1CA SWAP2 SWAP1 PUSH2 0x575 JUMP JUMPDEST SWAP1 POP PUSH32 0x99A8FD2A0841AFBE8000D711D763BF2C54B2C63BED7B7F92A244EF4F5154536 DUP4 DUP4 PUSH0 SLOAD PUSH1 0x40 MLOAD PUSH2 0x200 SWAP4 SWAP3 SWAP2 SWAP1 PUSH2 0x5A8 JUMP JUMPDEST PUSH1 0x40 MLOAD DUP1 SWAP2 SUB SWAP1 LOG1 SWAP3 SWAP2 POP POP JUMP JUMPDEST PUSH0 SLOAD DUP2 JUMP JUMPDEST DUP1 PUSH1 0xA DUP2 EQ PUSH2 0x220 JUMPI PUSH0 DUP1 REVERT JUMPDEST DUP2 PUSH0 SLOAD PUSH2 0x22D SWAP2 SWAP1 PUSH2 0x534 JUMP JUMPDEST PUSH0 DUP2 SWAP1 SSTORE POP POP POP JUMP JUMPDEST PUSH0 PUSH2 0x241 DUP4 DUP4 PUSH2 0x37C JUMP JUMPDEST SWAP1 POP PUSH32 0x2325F53408B10D20290D06F069AD56EB7ECAE5DB225E14D71CDA2C523652C5B DUP4 DUP4 PUSH0 SLOAD PUSH1 0x40 MLOAD PUSH2 0x277 SWAP4 SWAP3 SWAP2 SWAP1 PUSH2 0x5A8 JUMP JUMPDEST PUSH1 0x40 MLOAD DUP1 SWAP2 SUB SWAP1 LOG1 SWAP3 SWAP2 POP POP JUMP JUMPDEST PUSH0 DUP3 DUP3 PUSH0 DUP2 GT PUSH2 0x2CA JUMPI PUSH1 0x40 MLOAD PUSH32 0x8C379A000000000000000000000000000000000000000000000000000000000 DUP2 MSTORE PUSH1 0x4 ADD PUSH2 0x2C1 SWAP1 PUSH2 0x65D JUMP JUMPDEST PUSH1 0x40 MLOAD DUP1 SWAP2 SUB SWAP1 REVERT JUMPDEST PUSH0 DUP2 DUP4 PUSH2 0x2D7 SWAP2 SWAP1 PUSH2 0x6A8 JUMP JUMPDEST EQ PUSH2 0x317 JUMPI PUSH1 0x40 MLOAD PUSH32 0x8C379A000000000000000000000000000000000000000000000000000000000 DUP2 MSTORE PUSH1 0x4 ADD PUSH2 0x30E SWAP1 PUSH2 0x748 JUMP JUMPDEST PUSH1 0x40 MLOAD DUP1 SWAP2 SUB SWAP1 REVERT JUMPDEST PUSH2 0x321 DUP6 DUP6 PUSH2 0x391 JUMP JUMPDEST SWAP3 POP PUSH32 0xD8EF84F712E41D28F98FE74CD153013023D849514D0A40EE61834F3C385055CE DUP6 DUP6 PUSH0 SLOAD PUSH1 0x40 MLOAD PUSH2 0x357 SWAP4 SWAP3 SWAP2 SWAP1 PUSH2 0x5A8 JUMP JUMPDEST PUSH1 0x40 MLOAD DUP1 SWAP2 SUB SWAP1 LOG1 POP POP SWAP3 SWAP2 POP POP JUMP JUMPDEST PUSH0 DUP2 DUP4 PUSH2 0x374 SWAP2 SWAP1 PUSH2 0x766 JUMP JUMPDEST SWAP1 POP SWAP3 SWAP2 POP POP JUMP JUMPDEST PUSH0 DUP2 DUP4 PUSH2 0x389 SWAP2 SWAP1 PUSH2 0x7A6 JUMP JUMPDEST SWAP1 POP SWAP3 SWAP2 POP POP JUMP JUMPDEST PUSH0 DUP2 DUP4 PUSH2 0x39E SWAP2 SWAP1 PUSH2 0x7D9 JUMP JUMPDEST SWAP1 POP SWAP3 SWAP2 POP POP JUMP JUMPDEST PUSH0 DUP1 REVERT JUMPDEST PUSH0 DUP2 SWAP1 POP SWAP2 SWAP1 POP JUMP JUMPDEST PUSH2 0x3BC DUP2 PUSH2 0x3AA JUMP JUMPDEST DUP2 EQ PUSH2 0x3C6 JUMPI PUSH0 DUP1 REVERT JUMPDEST POP JUMP JUMPDEST PUSH0 DUP2 CALLDATALOAD SWAP1 POP PUSH2 0x3D7 DUP2 PUSH2 0x3B3 JUMP JUMPDEST SWAP3 SWAP2 POP POP JUMP JUMPDEST PUSH0 PUSH1 0x20 DUP3 DUP5 SUB SLT ISZERO PUSH2 0x3F2 JUMPI PUSH2 0x3F1 PUSH2 0x3A6 JUMP JUMPDEST JUMPDEST PUSH0 PUSH2 0x3FF DUP5 DUP3 DUP6 ADD PUSH2 0x3C9 JUMP JUMPDEST SWAP2 POP POP SWAP3 SWAP2 POP POP JUMP JUMPDEST PUSH0 DUP2 SWAP1 POP SWAP2 SWAP1 POP JUMP JUMPDEST PUSH2 0x41A DUP2 PUSH2 0x408 JUMP JUMPDEST DUP2 EQ PUSH2 0x424 JUMPI PUSH0 DUP1 REVERT JUMPDEST POP JUMP JUMPDEST PUSH0 DUP2 CALLDATALOAD SWAP1 POP PUSH2 0x435 DUP2 PUSH2 0x411 JUMP JUMPDEST SWAP3 SWAP2 POP POP JUMP JUMPDEST PUSH0 DUP1 PUSH1 0x40 DUP4 DUP6 SUB SLT ISZERO PUSH2 0x451 JUMPI PUSH2 0x450 PUSH2 0x3A6 JUMP JUMPDEST JUMPDEST PUSH0 PUSH2 0x45E DUP6 DUP3 DUP7 ADD PUSH2 0x427 JUMP JUMPDEST SWAP3 POP POP PUSH1 0x20 PUSH2 0x46F DUP6 DUP3 DUP7 ADD PUSH2 0x427 JUMP JUMPDEST SWAP2 POP POP SWAP3 POP SWAP3 SWAP1 POP JUMP JUMPDEST PUSH2 0x482 DUP2 PUSH2 0x408 JUMP JUMPDEST DUP3 MSTORE POP POP JUMP JUMPDEST PUSH0 PUSH1 0x20 DUP3 ADD SWAP1 POP PUSH2 0x49B PUSH0 DUP4 ADD DUP5 PUSH2 0x479 JUMP JUMPDEST SWAP3 SWAP2 POP POP JUMP JUMPDEST PUSH0 DUP1 PUSH1 0x40 DUP4 DUP6 SUB SLT ISZERO PUSH2 0x4B7 JUMPI PUSH2 0x4B6 PUSH2 0x3A6 JUMP JUMPDEST JUMPDEST PUSH0 PUSH2 0x4C4 DUP6 DUP3 DUP7 ADD PUSH2 0x3C9 JUMP JUMPDEST SWAP3 POP POP PUSH1 0x20 PUSH2 0x4D5 DUP6 DUP3 DUP7 ADD PUSH2 0x3C9 JUMP JUMPDEST SWAP2 POP POP SWAP3 POP SWAP3 SWAP1 POP JUMP JUMPDEST PUSH2 0x4E8 DUP2 PUSH2 0x3AA JUMP JUMPDEST DUP3 MSTORE POP POP JUMP JUMPDEST PUSH0 PUSH1 0x20 DUP3 ADD SWAP1 POP PUSH2 0x501 PUSH0 DUP4 ADD DUP5 PUSH2 0x4DF JUMP JUMPDEST SWAP3 SWAP2 POP POP JUMP JUMPDEST PUSH32 0x4E487B7100000000000000000000000000000000000000000000000000000000 PUSH0 MSTORE PUSH1 0x11 PUSH1 0x4 MSTORE PUSH1 0x24 PUSH0 REVERT JUMPDEST PUSH0 PUSH2 0x53E DUP3 PUSH2 0x3AA JUMP JUMPDEST SWAP2 POP PUSH2 0x549 DUP4 PUSH2 0x3AA JUMP JUMPDEST SWAP3 POP DUP3 DUP3 MUL PUSH2 0x557 DUP2 PUSH2 0x3AA JUMP JUMPDEST SWAP2 POP DUP3 DUP3 DIV DUP5 EQ DUP4 ISZERO OR PUSH2 0x56E JUMPI PUSH2 0x56D PUSH2 0x507 JUMP JUMPDEST JUMPDEST POP SWAP3 SWAP2 POP POP JUMP JUMPDEST PUSH0 PUSH2 0x57F DUP3 PUSH2 0x3AA JUMP JUMPDEST SWAP2 POP PUSH2 0x58A DUP4 PUSH2 0x3AA JUMP JUMPDEST SWAP3 POP DUP3 DUP3 ADD SWAP1 POP DUP1 DUP3 GT ISZERO PUSH2 0x5A2 JUMPI PUSH2 0x5A1 PUSH2 0x507 JUMP JUMPDEST JUMPDEST SWAP3 SWAP2 POP POP JUMP JUMPDEST PUSH0 PUSH1 0x60 DUP3 ADD SWAP1 POP PUSH2 0x5BB PUSH0 DUP4 ADD DUP7 PUSH2 0x4DF JUMP JUMPDEST PUSH2 0x5C8 PUSH1 0x20 DUP4 ADD DUP6 PUSH2 0x4DF JUMP JUMPDEST PUSH2 0x5D5 PUSH1 0x40 DUP4 ADD DUP5 PUSH2 0x4DF JUMP JUMPDEST SWAP5 SWAP4 POP POP POP POP JUMP JUMPDEST PUSH0 DUP3 DUP3 MSTORE PUSH1 0x20 DUP3 ADD SWAP1 POP SWAP3 SWAP2 POP POP JUMP JUMPDEST PUSH32 0x5468652064656E6F6D696E61746F722028276E756D325F2729206D7573742062 PUSH0 DUP3 ADD MSTORE PUSH32 0x652067726561746572207468616E20302E000000000000000000000000000000 PUSH1 0x20 DUP3 ADD MSTORE POP JUMP JUMPDEST PUSH0 PUSH2 0x647 PUSH1 0x31 DUP4 PUSH2 0x5DD JUMP JUMPDEST SWAP2 POP PUSH2 0x652 DUP3 PUSH2 0x5ED JUMP JUMPDEST PUSH1 0x40 DUP3 ADD SWAP1 POP SWAP2 SWAP1 POP JUMP JUMPDEST PUSH0 PUSH1 0x20 DUP3 ADD SWAP1 POP DUP2 DUP2 SUB PUSH0 DUP4 ADD MSTORE PUSH2 0x674 DUP2 PUSH2 0x63B JUMP JUMPDEST SWAP1 POP SWAP2 SWAP1 POP JUMP JUMPDEST PUSH32 0x4E487B7100000000000000000000000000000000000000000000000000000000 PUSH0 MSTORE PUSH1 0x12 PUSH1 0x4 MSTORE PUSH1 0x24 PUSH0 REVERT JUMPDEST PUSH0 PUSH2 0x6B2 DUP3 PUSH2 0x3AA JUMP JUMPDEST SWAP2 POP PUSH2 0x6BD DUP4 PUSH2 0x3AA JUMP JUMPDEST SWAP3 POP DUP3 PUSH2 0x6CD JUMPI PUSH2 0x6CC PUSH2 0x67B JUMP JUMPDEST JUMPDEST DUP3 DUP3 MOD SWAP1 POP SWAP3 SWAP2 POP POP JUMP JUMPDEST PUSH32 0x5468652072656D696E646572206F6620746865206469766973696F6E206D7573 PUSH0 DUP3 ADD MSTORE PUSH32 0x7420626520302E00000000000000000000000000000000000000000000000000 PUSH1 0x20 DUP3 ADD MSTORE POP JUMP JUMPDEST PUSH0 PUSH2 0x732 PUSH1 0x27 DUP4 PUSH2 0x5DD JUMP JUMPDEST SWAP2 POP PUSH2 0x73D DUP3 PUSH2 0x6D8 JUMP JUMPDEST PUSH1 0x40 DUP3 ADD SWAP1 POP SWAP2 SWAP1 POP JUMP JUMPDEST PUSH0 PUSH1 0x20 DUP3 ADD SWAP1 POP DUP2 DUP2 SUB PUSH0 DUP4 ADD MSTORE PUSH2 0x75F DUP2 PUSH2 0x726 JUMP JUMPDEST SWAP1 POP SWAP2 SWAP1 POP JUMP JUMPDEST PUSH0 PUSH2 0x770 DUP3 PUSH2 0x408 JUMP JUMPDEST SWAP2 POP PUSH2 0x77B DUP4 PUSH2 0x408 JUMP JUMPDEST SWAP3 POP DUP3 DUP3 SUB SWAP1 POP DUP2 DUP2 SLT PUSH0 DUP5 SLT AND DUP3 DUP3 SGT PUSH0 DUP6 SLT ISZERO AND OR ISZERO PUSH2 0x7A0 JUMPI PUSH2 0x79F PUSH2 0x507 JUMP JUMPDEST JUMPDEST SWAP3 SWAP2 POP POP JUMP JUMPDEST PUSH0 PUSH2 0x7B0 DUP3 PUSH2 0x3AA JUMP JUMPDEST SWAP2 POP PUSH2 0x7BB DUP4 PUSH2 0x3AA JUMP JUMPDEST SWAP3 POP DUP3 DUP3 SUB SWAP1 POP DUP2 DUP2 GT ISZERO PUSH2 0x7D3 JUMPI PUSH2 0x7D2 PUSH2 0x507 JUMP JUMPDEST JUMPDEST SWAP3 SWAP2 POP POP JUMP JUMPDEST PUSH0 PUSH2 0x7E3 DUP3 PUSH2 0x3AA JUMP JUMPDEST SWAP2 POP PUSH2 0x7EE DUP4 PUSH2 0x3AA JUMP JUMPDEST SWAP3 POP DUP3 PUSH2 0x7FE JUMPI PUSH2 0x7FD PUSH2 0x67B JUMP JUMPDEST JUMPDEST DUP3 DUP3 DIV SWAP1 POP SWAP3 SWAP2 POP POP JUMP INVALID LOG2 PUSH5 0x6970667358 0x22 SLT KECCAK256 0xCC EXTCODECOPY 0x29 0xDE 0xB9 0xBC DUP12 0xBC SIGNEXTEND 0x4C GT 0xAF 0xC6 MUL 0xFB GAS BASEFEE 0xBC DUP4 LOG3 STOP STATICCALL BASEFEE GASPRICE ADDMOD SMOD DUP13 0xD INVALID 0xD1 SWAP1 MOD PUSH5 0x736F6C6343 STOP ADDMOD XOR STOP CALLER "
				},
				"gasEstimates": {
					"creation": {
						"codeDepositCost": "422200",
						"executionCost": "22558",
						"totalCost": "444758"
					},
					"external": {
						"addition(uint256,uint256)": "infinite",
						"division(uint256,uint256)": "infinite",
						"multiplier(uint256)": "infinite",
						"multiplier2(uint256)": "infinite",
						"result()": "2424",
						"substraction(uint256,uint256)": "infinite",
						"substraction2(int256,int256)": "infinite"
					},
					"internal": {
						"division_logic(uint256,uint256)": "infinite",
						"substraction_logic(uint256,uint256)": "infinite",
						"substraction_logic2(int256,int256)": "infinite"
					}
				},
				"methodIdentifiers": {
					"addition(uint256,uint256)": "54f363a3",
					"division(uint256,uint256)": "e0068052",
					"multiplier(uint256)": "05e30f51",
					"multiplier2(uint256)": "a1623dce",
					"result()": "65372147",
					"substraction(uint256,uint256)": "cdeb3314",
					"substraction2(int256,int256)": "2efad609"
				}
			},
			"storageLayout": {
				"storage": [
					{
						"astId": 4,
						"contract": "Calculator.sol:Calculator",
						"label": "result",
						"offset": 0,
						"slot": "0",
						"type": "t_uint256"
					}
				],
				"types": {
					"t_uint256": {
						"encoding": "inplace",
						"label": "uint256",
						"numberOfBytes": "32"
					}
				}
			},
			"userdoc": {
				"kind": "user",
				"methods": {},
				"version": 1
			}
		}
	}
}