{
	"data": {
		"bytecode": {
			"linkReferences": {},
			"object": "6080604052600a5f55348015610013575f80fd5b5061037e806100215f395ff3fe608060405234801561000f575f80fd5b5060043610610034575f3560e01c80636537214714610038578063e006805214610056575b5f80fd5b610040610086565b60405161004d9190610163565b60405180910390f35b610070600480360381019061006b91906101aa565b61008b565b60405161007d9190610163565b60405180910390f35b5f5481565b5f82825f818361009b9190610215565b146100a4575f80fd5b6100ae85856100f4565b92507fd8ef84f712e41d28f98fe74cd153013023d849514d0a40ee61834f3c385055ce85855f546040516100e493929190610245565b60405180910390a1505092915050565b5f808211610137576040517f08c379a000000000000000000000000000000000000000000000000000000000815260040161012e906102fa565b60405180910390fd5b81836101439190610318565b905092915050565b5f819050919050565b61015d8161014b565b82525050565b5f6020820190506101765f830184610154565b92915050565b5f80fd5b6101898161014b565b8114610193575f80fd5b50565b5f813590506101a481610180565b92915050565b5f80604083850312156101c0576101bf61017c565b5b5f6101cd85828601610196565b92505060206101de85828601610196565b9150509250929050565b7f4e487b71000000000000000000000000000000000000000000000000000000005f52601260045260245ffd5b5f61021f8261014b565b915061022a8361014b565b92508261023a576102396101e8565b5b828206905092915050565b5f6060820190506102585f830186610154565b6102656020830185610154565b6102726040830184610154565b949350505050565b5f82825260208201905092915050565b7f546865207365636f6e64206e756d6265722073686f756c64206265206c6172675f8201527f6572207468616e20300000000000000000000000000000000000000000000000602082015250565b5f6102e460298361027a565b91506102ef8261028a565b604082019050919050565b5f6020820190508181035f830152610311816102d8565b9050919050565b5f6103228261014b565b915061032d8361014b565b92508261033d5761033c6101e8565b5b82820490509291505056fea264697066735822122006107a841e3b1d718f02c3cd79672eb8eb00d1d595fe6ebf2d33ebc2d74be21d64736f6c63430008180033",
			"opcodes": "PUSH1 0x80 PUSH1 0x40 MSTORE PUSH1 0xA PUSH0 SSTORE CALLVALUE DUP1 ISZERO PUSH2 0x13 JUMPI PUSH0 DUP1 REVERT JUMPDEST POP PUSH2 0x37E DUP1 PUSH2 0x21 PUSH0 CODECOPY PUSH0 RETURN INVALID PUSH1 0x80 PUSH1 0x40 MSTORE CALLVALUE DUP1 ISZERO PUSH2 0xF JUMPI PUSH0 DUP1 REVERT JUMPDEST POP PUSH1 0x4 CALLDATASIZE LT PUSH2 0x34 JUMPI PUSH0 CALLDATALOAD PUSH1 0xE0 SHR DUP1 PUSH4 0x65372147 EQ PUSH2 0x38 JUMPI DUP1 PUSH4 0xE0068052 EQ PUSH2 0x56 JUMPI JUMPDEST PUSH0 DUP1 REVERT JUMPDEST PUSH2 0x40 PUSH2 0x86 JUMP JUMPDEST PUSH1 0x40 MLOAD PUSH2 0x4D SWAP2 SWAP1 PUSH2 0x163 JUMP JUMPDEST PUSH1 0x40 MLOAD DUP1 SWAP2 SUB SWAP1 RETURN JUMPDEST PUSH2 0x70 PUSH1 0x4 DUP1 CALLDATASIZE SUB DUP2 ADD SWAP1 PUSH2 0x6B SWAP2 SWAP1 PUSH2 0x1AA JUMP JUMPDEST PUSH2 0x8B JUMP JUMPDEST PUSH1 0x40 MLOAD PUSH2 0x7D SWAP2 SWAP1 PUSH2 0x163 JUMP JUMPDEST PUSH1 0x40 MLOAD DUP1 SWAP2 SUB SWAP1 RETURN JUMPDEST PUSH0 SLOAD DUP2 JUMP JUMPDEST PUSH0 DUP3 DUP3 PUSH0 DUP2 DUP4 PUSH2 0x9B SWAP2 SWAP1 PUSH2 0x215 JUMP JUMPDEST EQ PUSH2 0xA4 JUMPI PUSH0 DUP1 REVERT JUMPDEST PUSH2 0xAE DUP6 DUP6 PUSH2 0xF4 JUMP JUMPDEST SWAP3 POP PUSH32 0xD8EF84F712E41D28F98FE74CD153013023D849514D0A40EE61834F3C385055CE DUP6 DUP6 PUSH0 SLOAD PUSH1 0x40 MLOAD PUSH2 0xE4 SWAP4 SWAP3 SWAP2 SWAP1 PUSH2 0x245 JUMP JUMPDEST PUSH1 0x40 MLOAD DUP1 SWAP2 SUB SWAP1 LOG1 POP POP SWAP3 SWAP2 POP POP JUMP JUMPDEST PUSH0 DUP1 DUP3 GT PUSH2 0x137 JUMPI PUSH1 0x40 MLOAD PUSH32 0x8C379A000000000000000000000000000000000000000000000000000000000 DUP2 MSTORE PUSH1 0x4 ADD PUSH2 0x12E SWAP1 PUSH2 0x2FA JUMP JUMPDEST PUSH1 0x40 MLOAD DUP1 SWAP2 SUB SWAP1 REVERT JUMPDEST DUP2 DUP4 PUSH2 0x143 SWAP2 SWAP1 PUSH2 0x318 JUMP JUMPDEST SWAP1 POP SWAP3 SWAP2 POP POP JUMP JUMPDEST PUSH0 DUP2 SWAP1 POP SWAP2 SWAP1 POP JUMP JUMPDEST PUSH2 0x15D DUP2 PUSH2 0x14B JUMP JUMPDEST DUP3 MSTORE POP POP JUMP JUMPDEST PUSH0 PUSH1 0x20 DUP3 ADD SWAP1 POP PUSH2 0x176 PUSH0 DUP4 ADD DUP5 PUSH2 0x154 JUMP JUMPDEST SWAP3 SWAP2 POP POP JUMP JUMPDEST PUSH0 DUP1 REVERT JUMPDEST PUSH2 0x189 DUP2 PUSH2 0x14B JUMP JUMPDEST DUP2 EQ PUSH2 0x193 JUMPI PUSH0 DUP1 REVERT JUMPDEST POP JUMP JUMPDEST PUSH0 DUP2 CALLDATALOAD SWAP1 POP PUSH2 0x1A4 DUP2 PUSH2 0x180 JUMP JUMPDEST SWAP3 SWAP2 POP POP JUMP JUMPDEST PUSH0 DUP1 PUSH1 0x40 DUP4 DUP6 SUB SLT ISZERO PUSH2 0x1C0 JUMPI PUSH2 0x1BF PUSH2 0x17C JUMP JUMPDEST JUMPDEST PUSH0 PUSH2 0x1CD DUP6 DUP3 DUP7 ADD PUSH2 0x196 JUMP JUMPDEST SWAP3 POP POP PUSH1 0x20 PUSH2 0x1DE DUP6 DUP3 DUP7 ADD PUSH2 0x196 JUMP JUMPDEST SWAP2 POP POP SWAP3 POP SWAP3 SWAP1 POP JUMP JUMPDEST PUSH32 0x4E487B7100000000000000000000000000000000000000000000000000000000 PUSH0 MSTORE PUSH1 0x12 PUSH1 0x4 MSTORE PUSH1 0x24 PUSH0 REVERT JUMPDEST PUSH0 PUSH2 0x21F DUP3 PUSH2 0x14B JUMP JUMPDEST SWAP2 POP PUSH2 0x22A DUP4 PUSH2 0x14B JUMP JUMPDEST SWAP3 POP DUP3 PUSH2 0x23A JUMPI PUSH2 0x239 PUSH2 0x1E8 JUMP JUMPDEST JUMPDEST DUP3 DUP3 MOD SWAP1 POP SWAP3 SWAP2 POP POP JUMP JUMPDEST PUSH0 PUSH1 0x60 DUP3 ADD SWAP1 POP PUSH2 0x258 PUSH0 DUP4 ADD DUP7 PUSH2 0x154 JUMP JUMPDEST PUSH2 0x265 PUSH1 0x20 DUP4 ADD DUP6 PUSH2 0x154 JUMP JUMPDEST PUSH2 0x272 PUSH1 0x40 DUP4 ADD DUP5 PUSH2 0x154 JUMP JUMPDEST SWAP5 SWAP4 POP POP POP POP JUMP JUMPDEST PUSH0 DUP3 DUP3 MSTORE PUSH1 0x20 DUP3 ADD SWAP1 POP SWAP3 SWAP2 POP POP JUMP JUMPDEST PUSH32 0x546865207365636F6E64206E756D6265722073686F756C64206265206C617267 PUSH0 DUP3 ADD MSTORE PUSH32 0x6572207468616E20300000000000000000000000000000000000000000000000 PUSH1 0x20 DUP3 ADD MSTORE POP JUMP JUMPDEST PUSH0 PUSH2 0x2E4 PUSH1 0x29 DUP4 PUSH2 0x27A JUMP JUMPDEST SWAP2 POP PUSH2 0x2EF DUP3 PUSH2 0x28A JUMP JUMPDEST PUSH1 0x40 DUP3 ADD SWAP1 POP SWAP2 SWAP1 POP JUMP JUMPDEST PUSH0 PUSH1 0x20 DUP3 ADD SWAP1 POP DUP2 DUP2 SUB PUSH0 DUP4 ADD MSTORE PUSH2 0x311 DUP2 PUSH2 0x2D8 JUMP JUMPDEST SWAP1 POP SWAP2 SWAP1 POP JUMP JUMPDEST PUSH0 PUSH2 0x322 DUP3 PUSH2 0x14B JUMP JUMPDEST SWAP2 POP PUSH2 0x32D DUP4 PUSH2 0x14B JUMP JUMPDEST SWAP3 POP DUP3 PUSH2 0x33D JUMPI PUSH2 0x33C PUSH2 0x1E8 JUMP JUMPDEST JUMPDEST DUP3 DUP3 DIV SWAP1 POP SWAP3 SWAP2 POP POP JUMP INVALID LOG2 PUSH5 0x6970667358 0x22 SLT KECCAK256 MOD LT PUSH27 0x841E3B1D718F02C3CD79672EB8EB00D1D595FE6EBF2D33EBC2D74B 0xE2 SAR PUSH5 0x736F6C6343 STOP ADDMOD XOR STOP CALLER "
		},
		"gasEstimates": {
			"creation": {
				"codeDepositCost": "178800",
				"executionCost": "22323",
				"totalCost": "201123"
			},
			"external": {
				"division(uint256,uint256)": "infinite",
				"result()": "2402"
			},
			"internal": {
				"division_logic(uint256,uint256)": "infinite"
			}
		},
		"methodIdentifiers": {
			"division(uint256,uint256)": "e0068052",
			"result()": "65372147"
		}
	},
	"abi": [
		{
			"anonymous": false,
			"inputs": [
				{
					"indexed": false,
					"internalType": "uint256",
					"name": "number1",
					"type": "uint256"
				},
				{
					"indexed": false,
					"internalType": "uint256",
					"name": "number2",
					"type": "uint256"
				},
				{
					"indexed": false,
					"internalType": "uint256",
					"name": "result",
					"type": "uint256"
				}
			],
			"name": "Division",
			"type": "event"
		},
		{
			"inputs": [
				{
					"internalType": "uint256",
					"name": "num1_",
					"type": "uint256"
				},
				{
					"internalType": "uint256",
					"name": "num2_",
					"type": "uint256"
				}
			],
			"name": "division",
			"outputs": [
				{
					"internalType": "uint256",
					"name": "result_",
					"type": "uint256"
				}
			],
			"stateMutability": "nonpayable",
			"type": "function"
		},
		{
			"inputs": [],
			"name": "result",
			"outputs": [
				{
					"internalType": "uint256",
					"name": "",
					"type": "uint256"
				}
			],
			"stateMutability": "view",
			"type": "function"
		}
	]
}